:107E0000112484B714BE81FFF6D082E08093C000B5
:107E100088E18093C10086E08093C2008EE0D5D0D7
:107E20004899FECF489BFECF81E08093810048991E
:107E3000FECF1092810080918400282F80918500D0
:107E4000382F285F3F4F44E0369527954A95E1F754
:107E5000215030402093C400ACD08033E9F7BBD030
:107E6000CC24DD245524539435E0432E21E1622EA9
:107E700093E0792E9ED0813461F49BD0082FABD053
:107E8000023811F0013811F485E001C083E089D097
:107E900085C0823411F484E103C0853419F485E08F
:107EA000A2D07CC0853569F484D0082F10E081D041
:107EB000B82EAA240A291B29000F111F8CD0680193
:107EC0006DC0863521F484E08ED080E0E0CF84362A
:107ED00009F03EC06ED06DD0082F6BD080E0C81680
:107EE00080E7D80618F4F60177BEE895C0E0D1E047
:107EF00060D089930C17E1F7F0E0CF16F0E7DF06CA
:107F000018F0F60177BEE89566D007B600FCFDCF05
:107F10009601A0E0B1E08C9190E011969C901197B1
:107F20008824882999291296F9010C0157BEE895F1
:107F300011242E5F3F4FF1E0A038BF0761F7F60133
:107F400047BEE89507B600FCFDCF67BEE89526C0A2
:107F50008437B1F42ED02DD0E82E2BD03CD0F601B2
:107F6000FE2C8F010F5F1F4F84911BD0FA94F801F4
:107F7000C1F70894C11CD11CEA94CE0CD11C0EC0D0
:107F8000853739F428D08EE10CD085E90AD08FE00E
:107F90007ECF813511F488E018D01DD080E101D06A
:107FA00069CF982F8091C00085FFFCCF9093C600C9
:107FB00008958091C00087FFFCCF8091C00084FDB0
:107FC00001C0A8958091C6000895E0E6F0E098E130
:107FD000908380830895EDDF803219F088E0F5DF2B
:107FE000FFCF84E1DECF1F93182FE3DF1150E9F7B5
:107FF000F2DF1F91089580E0E8DFEE27FF27099464
:0400000300007E007B
:00000001FF
