:107E0000112484B714BE81FFEED082E08093C000BD
:107E100088E18093C10086E08093C2008CE0CDD0E1
:107E20004899FECF489BFECF81E08093810048991E
:107E3000FECF1092810080918400282F80918500D0
:107E4000382F285F3F4F44E0369527954A95E1F754
:107E5000215030402093C400A4D08033E9F7B3D040
:107E6000EE24FF247724739435E0632E21E1822EE3
:107E700093E0992E96D0813471F493D0082FA3D03B
:107E8000023811F486E005C0013811F485E001C024
:107E900083E07FD07BC0823411F484E103C0853459
:107EA00019F485E098D072C0853569F47AD0082F2E
:107EB00010E077D0D82ECC240C291D29000F111FDB
:107EC00082D0780163C0863521F484E084D080E0DC
:107ED000E0CF843609F03EC064D063D0082F61D073
:107EE00080E0E81680E7F80618F4F70197BEE895F9
:107EF000C0E0D1E056D089930C17E1F7F0E0EF161F
:107F0000F0E7FF0618F0F70197BEE8955CD007B6DA
:107F100000FCFDCF9701A0E0B1E08C9190E01196BC
:107F2000BC901197AA248A299B291296F9010C0169
:107F300077BEE89511242E5F3F4FF1E0A038BF07D0
:107F400061F7F70167BEE89507B600FCFDCF87BE75
:107F5000E8951CC0843761F424D023D0082F21D0A9
:107F600032D0F70185917F0114D00150D1F70EC0B6
:107F7000853739F428D08EE10CD085E90AD08FE01E
:107F800088CF813511F488E018D01DD080E101D070
:107F900071CF982F8091C00085FFFCCF9093C600D1
:107FA00008958091C00087FFFCCF8091C00084FDC0
:107FB00001C0A8958091C6000895E0E6F0E098E140
:107FC000908380830895EDDF803219F088E0F5DF3B
:107FD000FFCF84E1DECF1F93182FE3DF1150E9F7C5
:107FE000F2DF1F910895282E80E0E7DFEE27FF27BC
:027FF0000994F2
:0400000300007E007B
:00000001FF
